{
    "contractName": "Bank",
    "abi": [
        {
            "inputs": [
                {
                    "internalType": "address",
                    "name": "",
                    "type": "address"
                }
            ],
            "name": "balances",
            "outputs": [
                {
                    "internalType": "uint256",
                    "name": "",
                    "type": "uint256"
                }
            ],
            "stateMutability": "view",
            "type": "function"
        },
        {
            "inputs": [],
            "name": "deposit",
            "outputs": [],
            "stateMutability": "payable",
            "type": "function"
        },
        {
            "inputs": [],
            "name": "getBal",
            "outputs": [
                {
                    "internalType": "uint256",
                    "name": "",
                    "type": "uint256"
                }
            ],
            "stateMutability": "view",
            "type": "function"
        },
        {
            "inputs": [
                {
                    "internalType": "uint256",
                    "name": "_amount",
                    "type": "uint256"
                }
            ],
            "name": "withdraw",
            "outputs": [],
            "stateMutability": "nonpayable",
            "type": "function"
        }
    ],
    "bytecode": "608060405234801561001057600080fd5b506102c1806100206000396000f3fe60806040526004361061003f5760003560e01c806325caa2621461004457806327e235e3146100655780632e1a7d4d14610092578063d0e30db0146100b4575b600080fd5b34801561005057600080fd5b50475b60405190815260200160405180910390f35b34801561007157600080fd5b50610053610080366004610200565b60006020819052908152604090205481565b34801561009e57600080fd5b506100b26100ad366004610230565b6100bc565b005b6100b26101da565b336000908152602081905260409020548111156101135760405162461bcd60e51b815260206004820152601060248201526f2737ba1032b737bab3b41032ba3432b960811b60448201526064015b60405180910390fd5b336000908152602081905260408120805483929061013290849061025f565b90915550506040516314d95b9d60e21b81526000903390839060040160006040518083038185875af1925050503d806000811461018b576040519150601f19603f3d011682016040523d82523d6000602084013e610190565b606091505b50509050806101d65760405162461bcd60e51b81526020600482015260126024820152710ccc2d2d8cac840e8de40e6cadcc8408aa8960731b604482015260640161010a565b5050565b33600090815260208190526040812080543492906101f9908490610278565b9091555050565b60006020828403121561021257600080fd5b81356001600160a01b038116811461022957600080fd5b9392505050565b60006020828403121561024257600080fd5b5035919050565b634e487b7160e01b600052601160045260246000fd5b8181038181111561027257610272610249565b92915050565b808201808211156102725761027261024956fea26469706673582212206b66e00a533ce69f1d62a331770ef1164d76ccaa6323cae42b40902a64c586ee64736f6c63430008110033",
    "sourcePath": "/Users/devansh/PICT/BE/LP-3/BT/bt2.sol",
    "compiler": {
        "name": "solc",
        "version": "0.8.17+commit.8df45f5f"
    },
    "functionHashes": {
        "balances(address)": "27e235e3",
        "deposit()": "d0e30db0",
        "getBal()": "25caa262",
        "withdraw(uint256)": "2e1a7d4d"
    },
    "gasEstimates": {
        "creation": {
            "codeDepositCost": "141000",
            "executionCost": "190",
            "totalCost": "141190"
        },
        "external": {
            "balances(address)": "2475",
            "deposit()": "24537",
            "getBal()": "149",
            "withdraw(uint256)": "infinite"
        }
    }
}